{
    "contractName": "Assignment5",
    "abi": [
        {
            "inputs": [],
            "stateMutability": "nonpayable",
            "type": "constructor"
        },
        {
            "inputs": [
                {
                    "internalType": "uint256",
                    "name": "id",
                    "type": "uint256"
                },
                {
                    "internalType": "string",
                    "name": "name",
                    "type": "string"
                },
                {
                    "internalType": "address",
                    "name": "userAddress",
                    "type": "address"
                }
            ],
            "name": "addUser",
            "outputs": [],
            "stateMutability": "nonpayable",
            "type": "function"
        },
        {
            "inputs": [],
            "name": "counter",
            "outputs": [
                {
                    "internalType": "uint256",
                    "name": "",
                    "type": "uint256"
                }
            ],
            "stateMutability": "view",
            "type": "function"
        },
        {
            "inputs": [],
            "name": "getUserCount",
            "outputs": [
                {
                    "internalType": "uint256",
                    "name": "",
                    "type": "uint256"
                }
            ],
            "stateMutability": "view",
            "type": "function"
        },
        {
            "inputs": [],
            "name": "incrementCounter",
            "outputs": [],
            "stateMutability": "nonpayable",
            "type": "function"
        },
        {
            "inputs": [],
            "name": "isActive",
            "outputs": [
                {
                    "internalType": "bool",
                    "name": "",
                    "type": "bool"
                }
            ],
            "stateMutability": "view",
            "type": "function"
        },
        {
            "inputs": [],
            "name": "toggleActive",
            "outputs": [],
            "stateMutability": "nonpayable",
            "type": "function"
        },
        {
            "inputs": [
                {
                    "internalType": "address",
                    "name": "",
                    "type": "address"
                }
            ],
            "name": "userNames",
            "outputs": [
                {
                    "internalType": "string",
                    "name": "",
                    "type": "string"
                }
            ],
            "stateMutability": "view",
            "type": "function"
        },
        {
            "inputs": [
                {
                    "internalType": "uint256",
                    "name": "",
                    "type": "uint256"
                }
            ],
            "name": "users",
            "outputs": [
                {
                    "internalType": "uint256",
                    "name": "id",
                    "type": "uint256"
                },
                {
                    "internalType": "string",
                    "name": "name",
                    "type": "string"
                }
            ],
            "stateMutability": "view",
            "type": "function"
        }
    ],
    "bytecode": "60808060405234602157600160ff198154161760015561069f90816100268239f35b5f80fdfe6080806040526004361015610012575f80fd5b5f3560e01c90816322f3e2d4146104fc5750806329c68dc1146104c6578063365b98b2146104735780635b34b9661461042a57806361bc221a1461040e5780637f281635146103ba578063b5cb15f71461039d5763f3fbfe8e14610074575f80fd5b346103995760603660031901126103995760243567ffffffffffffffff8111610399573660238201121561039957806004013567ffffffffffffffff81116102c157604051916100ce601f8301601f191660200184610583565b818352366024838301011161039957815f9260246020930183860137830101526044356001600160a01b038116919082900361039957604051916040830183811067ffffffffffffffff8211176102c15760405260043583526020830192828452600354680100000000000000008110156102c157806001610153920160035561051b565b6103865760019151815501925192835167ffffffffffffffff81116102c15761017c825461054b565b601f8111610341575b50602094601f82116001146102e0579481929394955f926102d5575b50508160011b915f199060031b1c19161790555b5f52600260205260405f20815167ffffffffffffffff81116102c1576101db825461054b565b601f811161027c575b50602092601f821160011461022057928192935f92610215575b50505f19600383901b1c191660019190911b179055005b015190505f806101fe565b601f19821693835f52805f20915f5b868110610264575083600195961061024c575b505050811b019055005b01515f1960f88460031b161c191690555f8080610242565b9192602060018192868501518155019401920161022f565b825f5260205f20601f830160051c810191602084106102b7575b601f0160051c01905b8181106102ac57506101e4565b5f815560010161029f565b9091508190610296565b634e487b7160e01b5f52604160045260245ffd5b015190505f806101a1565b601f19821695835f52805f20915f5b88811061032957508360019596979810610311575b505050811b0190556101b5565b01515f1960f88460031b161c191690555f8080610304565b919260206001819286850151815501940192016102ef565b825f5260205f20601f830160051c8101916020841061037c575b601f0160051c01905b8181106103715750610185565b5f8155600101610364565b909150819061035b565b634e487b7160e01b5f525f60045260245ffd5b5f80fd5b34610399575f366003190112610399576020600354604051908152f35b34610399576020366003190112610399576004356001600160a01b03811690819003610399575f52600260205261040a6103f660405f206105a5565b604051918291602083526020830190610645565b0390f35b34610399575f3660031901126103995760205f54604051908152f35b34610399575f366003190112610399575f5b6005811061044657005b5f54906001820180921161045f576001915f550161043c565b634e487b7160e01b5f52601160045260245ffd5b34610399576020366003190112610399576004356003548110156103995761049a9061051b565b506104a96001825492016105a5565b9061040a6040519283928352604060208401526040830190610645565b34610399575f3660031901126103995760015460ff8116156104ef57506001805460ff19169055005b60ff191660019081179055005b34610399575f3660031901126103995760209060ff6001541615158152f35b6003548110156105375760035f5260205f209060011b01905f90565b634e487b7160e01b5f52603260045260245ffd5b90600182811c92168015610579575b602083101461056557565b634e487b7160e01b5f52602260045260245ffd5b91607f169161055a565b90601f8019910116810190811067ffffffffffffffff8211176102c157604052565b9060405191825f8254926105b88461054b565b808452936001811690811561062357506001146105df575b506105dd92500383610583565b565b90505f9291925260205f20905f915b8183106106075750509060206105dd928201015f6105d0565b60209193508060019154838589010152019101909184926105ee565b9050602092506105dd94915060ff191682840152151560051b8201015f6105d0565b805180835260209291819084018484015e5f828201840152601f01601f191601019056fea26469706673582212203c5f31c1b1cedef96fc1fa55f36c1a2e0f74faa120f30199f8bb961b2256faba64736f6c634300081c0033",
    "sourcePath": "e:/{zeroXcoder} My trip/BlOcK_ChAiN/Assignment/bootcamp25-assignment5-ZeroXcode0101/src/Assignment5.sol",
    "compiler": {
        "name": "solc",
        "version": "0.8.28+commit.7893614a"
    },
    "functionHashes": {
        "addUser(uint256,string,address)": "f3fbfe8e",
        "counter()": "61bc221a",
        "getUserCount()": "b5cb15f7",
        "incrementCounter()": "5b34b966",
        "isActive()": "22f3e2d4",
        "toggleActive()": "29c68dc1",
        "userNames(address)": "7f281635",
        "users(uint256)": "365b98b2"
    },
    "gasEstimates": {
        "creation": {
            "codeDepositCost": "339000",
            "executionCost": "24602",
            "totalCost": "363602"
        },
        "external": {
            "addUser(uint256,string,address)": "infinite",
            "counter()": "2343",
            "getUserCount()": "2388",
            "incrementCounter()": "infinite",
            "isActive()": "2260",
            "toggleActive()": "26499",
            "userNames(address)": "infinite",
            "users(uint256)": "infinite"
        }
    }
}